:10000000F8FF002011040000253200002532000016
:100010002532000025320000253200002532000084
:100020002532000025320000253200002532000074
:100030002532000025320000253200002532000064
:100040002532000025320000253200002532000054
:10040000FFFFFFFFFFFFFFFFFFFFFFFFFEFFFFFFFD
:1004100062B60CF0A1FAFEE7DFF800F0A50CFF1FB2
:10042000DFF800F0FD0CFF1F80B5482001F05CF9FB
:10043000002814D1DFF8280B0068052101FB00F12A
:10044000032001F0A9F9482001F04EF9002806D157
:10045000482001F049F90028FAD0082068E04D2032
:1004600001F042F9002814D1DFF8F40A00680521F0
:1004700001FB00F1032001F08FF94D2001F034F968
:10048000002806D14D2001F02FF90028FAD00220D3
:100490004EE0462001F028F9002814D1DFF8C00A08
:1004A0000068052101FB00F1032001F075F94620E9
:1004B00001F01AF9002806D1462001F015F90028AC
:1004C000FAD0052034E04A2001F00EF9002814D1BA
:1004D000DFF88C0A0068052101FB00F1032001F020
:1004E0005BF94A2001F000F9002806D14A2001F00A
:1004F000FBF80028FAD004201AE0532001F0F4F8A9
:10050000002814D1DFF8580A0068052101FB00F12A
:10051000032001F041F9532001F0E6F8002806D14C
:10052000532001F0E1F80028FAD0062000E0002076
:1005300002BD80B5DFF82C0A0078DFF82C1A91F99B
:10054000001000B209B2884214D0002001F0EAF98C
:100550000120DFF8181A08700120DFF8141A08705B
:100560000120DFF8101A0870DFF8FC090078DFF8C6
:10057000F419087001BD38B500246D2001F0B4F8FD
:1005800005006B2001F0B0F8400050FA85F004003F
:10059000612001F0A9F8002806D10520DFF8C8196C
:1005A0000870FFF7C6FF22E0E4B2012C04D018D394
:1005B000032C0FD007D314E00320DFF8AC19087028
:1005C000FFF7B7FF13E00220DFF89C190870FFF770
:1005D000B0FF0CE00120DFF890190870FFF7A9FFC9
:1005E00005E00420DFF880190870FFF7A2FF31BD95
:1005F00080B5FFF7C0FFFFF79CFFDFF86C0990F9AB
:100600000000042802D101F081FE23E0DFF8580940
:1006100090F90000012802D102F00CF91AE0DFF88D
:10062000480990F90000022802D102F057F911E0C0
:10063000DFF8340990F90000032802D101F0F7FE39
:1006400008E0DFF8240990F90000052802D102F043
:1006500019FAFFE701BD80B5FFF7E6FE022800F0BA
:10066000F481042806D0052818D006282AD00828A6
:100670003CD0B2E3DFF8F4080078401CDFF8EC1857
:100680000870002001F04EF9DFF8E0080078052836
:1006900003D10120DFF8D41808709EE3DFF8D408F6
:1006A0000078401CDFF8CC180870002001F03AF9FF
:1006B000DFF8C0080078042803D10120DFF8B4185F
:1006C00008708AE3DFF8A8080078401CDFF8A0185B
:1006D0000870002001F026F9DFF89408007804285B
:1006E00003D10120DFF88818087076E3DFF87C0872
:1006F0000078012840F08080DFF874080078012835
:1007000037D1DFF870080078012804D02ED30328F1
:100710001CD00BD32AE0DFF8F00B01685FF07E50AD
:1007200002F030FBDFF8E01B08601FE0DFF8D80BB9
:10073000006802F069FB0022DFF8D03B02F08CFB7E
:1007400002F0FEFBDFF8C01B08600FE0DFF8B80B1B
:10075000006802F059FBDFF8B82BDFF8B83B02F075
:100760007BFB02F0EDFBDFF8A01B086000F0DEFD74
:1007700033E3DFF8FC070078022837D1DFF8F4070D
:100780000078012804D02ED303281CD00BD32AE0F4
:10079000DFF8840B01685FF07E5002F0F3FADFF8B7
:1007A000781B08601FE0DFF8700B006802F02CFB7C
:1007B0000022DFF8583B02F04FFB02F0C1FBDFF8EC
:1007C000581B08600FE0DFF8500B006802F01CFBBC
:1007D000DFF83C2BDFF83C3B02F03EFB02F0B0FBC5
:1007E000DFF8341B086000F0A1FDF6E2DFF88007B7
:1007F0000078032800F0F182DFF870070078022803
:100800001DD1DFF86C070078012809D1DFF80C0B47
:100810000088401DDFF8041B088000F087FDDCE243
:10082000DFF84C070078022809D1DFF8F40A0088C5
:10083000401DDFF8EC1A088000F078FDCDE2DFF80B
:100840002C070078032840F0CB80DFF824070078DD
:10085000012837D1DFF81C070078012804D02ED3F7
:1008600003281CD00BD32AE0DFF8B80A01685FF038
:100870007E5002F087FADFF8AC1A08601FE0DFF85C
:10088000A40A006802F0C0FA0022DFF8803A02F001
:10089000E3FA02F055FBDFF88C1A08600FE0DFF88E
:1008A000840A006802F0B0FADFF8642ADFF8643ADC
:1008B00002F0D2FA02F044FBDFF8681A086000F098
:1008C00035FD8AE2DFF8A8060078022837D1DFF884
:1008D000A4060078012804D02ED303281CD00BD303
:1008E0002AE0DFF8440A01685FF07E5002F04AFA1D
:1008F000DFF8341A08601FE0DFF82C0A006802F005
:1009000083FA0022DFF8043A02F0A6FA02F018FB9C
:10091000DFF8141A08600FE0DFF80C0A006802F034
:1009200073FADFF8EC29DFF8EC3902F095FA02F0FF
:1009300007FBDFF8F419086000F0F8FC4DE2DFF87F
:100940003006007803284BD1DFF82806007801280C
:1009500004D02ED303281CD00BD32AE0DFF8CC0B15
:1009600001685FF07E5002F00DFADFF8C01B0860EE
:100970001FE0DFF8B80B006802F046FA0022DFF84B
:100980008C3902F069FA02F0DBFADFF8A01B08608C
:100990000FE0DFF8980B006802F036FADFF87029F4
:1009A000DFF8703902F058FA02F0CAFADFF87C1B5F
:1009B0000860DFF8780B0068DFF8741B02F008FBB2
:1009C00006D2DFF8680B0068DFF8601B086004E0FF
:1009D000DFF85C0BDFF8541B086000F0A7FCFCE1BB
:1009E000DFF888050078042818D1DFF8840500783E
:1009F000012807D1DFF83C0B0088401DDFF8341BCD
:100A00000880EAE1DFF868050078022800F0E58157
:100A1000DFF85C050078032800F0DF81DFF84C0583
:100A20000078052811D1DFF848050078012800F08A
:100A3000D481DFF83C050078022800F0CE81DFF891
:100A400030050078032800F0C881DFF82005007821
:100A5000012840F09680DFF818050078012842D17F
:100A6000DFF810050078012804D02ED303281CD00D
:100A70000BD32AE0DFF890080168DFF8BC0A02F027
:100A800081F9DFF8841808601FE0DFF87C0800684F
:100A900002F0BAF90022DFF8A43A02F0DDF902F020
:100AA0004FFADFF8641808600FE0DFF85C080068B0
:100AB00002F0AAF9DFF85828DFF8843A02F0CCF9FE
:100AC00002F03EFADFF840180860DFF83C080068E2
:100AD000002102F07DFA03D80020DFF82C1808600E
:100AE00000F024FC79E1DFF888040078022842D184
:100AF000DFF880040078012804D02ED303281CD00E
:100B00000BD32AE0DFF810080168DFF82C0A02F0A6
:100B100039F9DFF8041808601FE0DFF8FC07006807
:100B200002F072F90022DFF8143A02F095F902F0AF
:100B300007FADFF8E41708600FE0DFF8DC07006869
:100B400002F062F9DFF8C827DFF8F43902F084F91F
:100B500002F0F6F9DFF8C0170860DFF8BC0700689C
:100B6000002102F035FA03D80020DFF8AC17086046
:100B700000F0DCFB31E1DFF8F8030078032800F037
:100B80002C81DFF8E803007802281DD1DFF8E003AC
:100B90000078012809D1DFF884070088401FDFF8BA
:100BA0007C17088000F0C2FB17E1DFF8C40300786F
:100BB000022809D1DFF868070088401FDFF86017B6
:100BC000088000F0B3FB08E1DFF8A00300780328F9
:100BD00040F0DB80DFF898030078012842D1DFF88D
:100BE00094030078012804D02ED303281CD00BD303
:100BF0002AE0DFF830070168DFF83C0902F0C2F8AC
:100C0000DFF8201708601FE0DFF81807006802F01F
:100C1000FBF80022DFF8243902F01EF902F090F907
:100C2000DFF8001708600FE0DFF8F806006802F050
:100C3000EBF8DFF8DC26DFF8083902F00DF902F0F6
:100C40007FF9DFF8E0160860DFF8D80600680021B9
:100C500002F0BEF903D80020DFF8C816086000F0E3
:100C600065FBBAE0C2480078022841D1C14800784B
:100C7000012804D02ED303281CD00BD32AE0DFF8A0
:100C8000A8060168DFF8B00802F07CF8DFF89816D3
:100C900008601FE0DFF89006006802F0B5F8002257
:100CA000DFF8983802F0D8F802F04AF9DFF8781641
:100CB00008600FE0DFF87006006802F0A5F8DFF8C2
:100CC0005026DFF87C3802F0C7F802F039F9DFF877
:100CD00058160860DFF850060068002102F078F925
:100CE00003D80020DFF84016086000F01FFB74E016
:100CF0009F480078032848D19E480078012804D0F6
:100D00002ED303281CD00BD32AE0DFF8200801687B
:100D1000DFF8240802F036F8DFF8101808601FE04A
:100D2000DFF80808006802F06FF80022DFF80C38DE
:100D300002F092F802F004F9DFF8F01708600FE013
:100D4000DFF8E807006802F05FF8DFF8C425DFF895
:100D5000F03702F081F802F0F3F8DFF8D0170860FE
:100D6000DFF8C8070068002102F044F906D2DFF876
:100D7000BC070068DFF8B417086003E00020DFF864
:100D8000AC17086000F0D2FA27E078480078042811
:100D900013D177480078012807D1DFF89807008839
:100DA000401FDFF89017088017E07148007802288C
:100DB00013D06F48007803280FD06C4800780528BE
:100DC0000BD16B480078012807D0694800780228C9
:100DD00003D0674800780328FFD001BD80B5FFF736
:100DE00023FB022872D0042804D0052816D0082836
:100DF00024D0B3E0DFF84C070078401CDFF844173C
:100E00000870002000F08EFDDFF838070078062813
:100E100003D10120DFF82C1708709FE055480078B7
:100E2000401C54490870002000F07CFD51480078B7
:100E3000042802D101204F4908708FE0DFF8040731
:100E40000078022822D14B480078012804D01AD318
:100E5000032811D008D316E0DFF8EC060088401D07
:100E6000DFF8E41608800EE0DFF8DC0600880A30C0
:100E7000DFF8D416088006E0DFF8CC0600881430CE
:100E8000DFF8C416088000F051FA67E0DFF8B40616
:100E90000078032815D1DFF8B40690F90000012886
:100EA00004D10220DFF8A416087057E0DFF89C0692
:100EB00090F90000022804D10120DFF89016087094
:100EC0004CE0DFF880060078042847D0DFF874068D
:100ED0000078022822D127480078012804D01AD3AC
:100EE000032811D008D316E0DFF85C060088401F05
:100EF000DFF8541608800EE0DFF84C0600880A3848
:100F0000DFF84416088006E0DFF83C060088143855
:100F1000DFF83416088000F009FA1FE0DFF8240635
:100F20000078032815D1DFF8240690F90000012885
:100F300004D10220DFF8141608700FE0DFF80C0669
:100F400090F90000022804D10120DFF80016087093
:100F500004E0DFF8F00500780428FFD001BD0000B0
:100F6000803FFF1F780CFF1F6E0CFF1F710CFF1FCF
:100F7000720CFF1F730CFF1F80B5FFF755FA022894
:100F800000F00381042806D0052818D006282AD0AE
:100F900008283CD0A0E1DFF8AC050078401CDFF861
:100FA000A4150870002000F0BDFCDFF8980500785B
:100FB000052803D10120DFF88C1508708CE1DFF8DB
:100FC00090050078401CDFF888150870002000F0BC
:100FD000A9FCDFF87C050078042803D10120DFF8A4
:100FE0007015087078E1DFF86C050078401CDFF8B8
:100FF00064150870002000F095FCDFF858050078B3
:10100000032803D10120DFF84C15087064E1DFF8F4
:101010003405007801281FD1DFF83C05007801284D
:101020000ED10020DFF8301508700020DFF82C15F5
:1010300008700020DFF82815087000F077F94BE100
:10104000DFF814050078002806D10120DFF8081524
:10105000087000F06BF93FE1DFF8E804007802283F
:1010600017D1DFF800050078012806D10020DFF84D
:10107000F414087000F05AF92EE1DFF8E804007863
:10108000002806D10120DFF8DC14087000F04EF9CA
:1010900022E1DFF8B0040078032825D1DFF8B80496
:1010A0000078012820D1DFF8B40490F9000001286D
:1010B00006D10220DFF8A414087000F037F90BE124
:1010C000DFF8980490F90000022806D10120DFF82B
:1010D0008C14087000F02AF9FEE00120DFF87C147F
:1010E000087000F023F9F7E0DFF8580400780428CE
:1010F0004BD1DFF860040078012840D1DFF85804B4
:10110000007801281DD1DFF8540490F9000001286F
:1011100017D1DFF854040078012806D10020DFF849
:101120004814087000F002F9D6E0DFF83C040078BB
:10113000002806D10120DFF83014087000F0F6F81E
:10114000CAE0DFF81404007801281ED1DFF80C048F
:1011500090F90000022818D1DFF804040078401C40
:10116000DFF8FC130870DFF8F8030078052803D1D6
:101170000120DFF8EC13087000F0D8F8ACE0DFF8DD
:10118000D4030078022800F0A780DFF8B8030078C5
:10119000012817D1DFF8C0030078012806D100200C
:1011A000DFF8B413087000F0C1F895E0DFF8A80389
:1011B0000078002806D10120DFF89C13087000F0A9
:1011C000B5F889E0DFF87C030078022817D1DFF852
:1011D00094030078012806D10020DFF888130870F6
:1011E00000F0A4F878E0DFF87C030078002806D14E
:1011F0000120DFF87013087000F098F86CE0DFF859
:1012000044030078032822D1DFF84C03007801283A
:101210001DD1DFF8480390F90000012806D1022013
:10122000DFF83813087000F081F855E0CB4890F9EA
:101230000000022805D10120C849087000F076F8A6
:101240004AE00120C549087000F070F844E0BD484C
:101250000078042840D1BF480078012838D1BE4822
:101260000078012818D1BD4890F90000012813D159
:10127000BD480078012805D10020BB49087000F066
:1012800055F829E0B8480078002805D10120B64972
:10129000087000F04BF81FE0AF48007801281BD120
:1012A000AE4890F90000022816D1AD480078002819
:1012B00012D0AB480078401EA9490870A8480078B1
:1012C000002802D10120A649087000F02FF803E0A1
:1012D000A04800780228FFD001BD80B5A34890F94E
:1012E0000000022801D1FFF7B6F9A04890F90000EC
:1012F000032801D1FFF772FD9C4890F900000528F2
:1013000001D1FFF739FE01BDF43CFF1F0000E03FB3
:101310009A9999999999B93FF83CFF1F3840FF1F56
:101320003A40FF1FFC3CFF1F003DFF1F80B5FF2020
:10133000FFF772F88E4801687D4801F06DFE01F0FC
:10134000D7FE80B20A2190FBF1F08A4908808848D4
:101350000168774801F060FE01F0CAFE80B20A2100
:1013600090FBF1F201FB120083490880814802885A
:101370000021FF20FFF754F87F4802880421FF2056
:10138000FFF74EF87D480168694801F045FE01F01D
:10139000AFFE80B20A2190FBF1F0764908807748D1
:1013A0000168634801F038FE01F0A2FE80B20A2114
:1013B00090FBF1F201FB12006F4908806D48028832
:1013C0000821FF20FFF72CF86B4802880C21FF2032
:1013D000FFF726F86A4802881021FF20FFF720F85F
:1013E000684802881821FF20FFF71AF8664801684C
:1013F0004F4801F011FE01F07BFE80B20A2190FB04
:10140000F1F05C49088060480168494801F004FE39
:1014100001F06EFE80B20A2190FBF1F201FB120096
:1014200055490880534802883021FF20FEF7F8FF15
:10143000514802883421FF20FEF7F2FF534801682B
:101440003B4801F0E9FD01F053FE80B20A2190FB18
:10145000F1F0484908804D480168354801F0DCFD4D
:1014600001F046FE80B20A2190FBF1F201FB12006E
:10147000414908803F4802883821FF20FEF7D0FF0D
:101480003D4802883C21FF20FEF7CAFF2E48028813
:101490004021FF20FEF7C4FF2F4802784421FF209F
:1014A000FEF7BEFF2F4802784821FF20FEF7B8FF65
:1014B0001E4801681E4801F0AFFD01F019FE80B220
:1014C0000A2190FBF1F02B49088018480168184860
:1014D00001F0A2FD01F00CFE80B20A2190FBF1F2B6
:1014E00001FB120024490880224802884C21FF2079
:1014F000FEF796FF204802885021FF20FEF790FF5C
:10150000164890F900205421FF20FEF789FF144867
:1015100002785821FF20FEF783FF134802785C21F0
:10152000FF20FEF77DFF01BD00000000043DFF1F0E
:10153000000020416C0CFF1F000080BF0000E0BFD6
:101540009999B9BF710CFF1FFC3FFF1F6F0CFF1F64
:10155000730CFF1F720CFF1F6640FF1F6140FF1FCF
:101560006240FF1F6040FF1F8040FF1F6E0CFF1F87
:10157000F43CFF1FDE3FFF1FE03FFF1FF83CFF1F53
:101580003840FF1F3A40FF1FFC3CFF1F003DFF1F7C
:1015900070B504000D0016004FF480712000C0B239
:1015A00001F0C8FD6DB2002D11D15E48E4B26111A9
:1015B00050F821005B49E4B2621151F822104969E8
:1015C000012214F01F039A409143416136E05548CF
:1015D000E4B2611150F821005249E4B2621151F8AD
:1015E00022104969012214F01F039A4011434161FE
:1015F000F6B2002E11D14B48E4B2611150F821002F
:101600000068012114F01F02914088434549E4B26B
:10161000621151F82210086010E04248E4B26111F2
:1016200050F821000068012114F01F029140084386
:101630003C49E4B2621151F82210086070BD38B51F
:1016400004000D003748E4B2611150F821004069F0
:1016500014F01F01C840C00703D46321324801F0D1
:10166000C5FDEDB2002D11D12E48E4B2611150F844
:1016700021000068012114F01F029140884329498C
:10168000E4B2621151F82210086010E02548E4B27B
:10169000611150F821000068012114F01F029140EF
:1016A00008432049E4B2621151F82210086031BDAC
:1016B00010B504001B48E4B2611150F821004069E4
:1016C00014F01F01C840C00703D47B21164801F065
:1016D0008DFD1448E4B2611150F82100012114F08D
:1016E0001F029140C16010BD10B504000D48E4B266
:1016F000611150F82100406914F01F01C840C00773
:1017000003D58C21084801F071FD0648E4B261114F
:1017100050F82100006914F01F01C84010F00100CA
:1017200010BD00003C0BFF1FA4CD000038B5040025
:101730000D00002D03D12421434801F057FD4348FB
:10174000006850F4000041490860002040490860EA
:10175000681E404964B2220188503E4864B22101AB
:101760000844C06850F001003A4964B222011144B3
:10177000C860384864B221010844806840084000CD
:10178000344964B22201114488600320314964B2B3
:1017900022011144886031BD38B504000D00002DD0
:1017A00003D14721284801F021FD2848006850F462
:1017B0000000264908602648006880088000244907
:1017C0000860244864B22101084480684008400051
:1017D000204964B2220111448860681E1D4964B228
:1017E000220188501B4864B221010844C06850F0AF
:1017F0000100184964B222011144C860154864B25E
:1018000021010844806840084000124964B2220166
:101810001144886001200F4964B22201114488609C
:101820000C4864B221010844C068C007F8D50948D3
:1018300064B221010844C06850F00100054964B257
:1018400022011144C86031BD00CF00003C8004403B
:10185000007003400071034038B5040008250121E1
:101860004C20FFF7ECFE00BF00216320FFF7E7FEEE
:1018700000BF2800451EC0B2002815D0200604D5A0
:1018800001216020FFF7DBFE03E000216020FFF76D
:10189000D6FE01216320FFF7D2FE00BF00216320A6
:1018A000FFF7CDFE6400E4E731BD000038B5040069
:1018B000082500214C20FFF7C2FE00216320FFF71E
:1018C000BEFE2800451EC0B2002815D0200604D553
:1018D00001216020FFF7B3FE03E000216020FFF745
:1018E000AEFE01216320FFF7AAFE00BF00216320A6
:1018F000FFF7A5FE6400E4E731BD38B504000D0034
:10190000B5F15000C0B2FFF7D1FF2000C0B200090E
:1019100050F01000C0B2FFF7C9FF14F00F00FFF73E
:10192000C5FF31BD70B5040000200500EDB2082DE3
:1019300017DAB5F15000C0B2FFF7B8FF0120FFF78A
:10194000B5FF1020FFF7B2FF00200600F6B2802E90
:1019500005DA2000C0B2FFF77FFF761CF6E76D1CAA
:10196000E4E770BD80B2002809D043F2264211009E
:101970000A00511E92B2002AFAD1401EF2E77047C7
:1019800080B5002201214C20FFF702FE0022012138
:101990006320FFF7FDFD002201216020FFF7F8FD25
:1019A000002201215220FFF7F3FD01216320FFF700
:1019B00046FE00215220FFF742FE3220FFF7D2FF01
:1019C00001215220FFF73BFEAE20FFF76FFF002002
:1019D000FFF76CFF1020FFF769FF4020FFF766FF5D
:1019E0008120FFF763FFCF20FFF760FFA020FFF704
:1019F0005DFFC020FFF75AFFA620FFF757FFA82082
:101A0000FFF754FF3F20FFF751FFD320FFF74EFFB2
:101A10000020FFF74BFFD520FFF748FF8020FFF79E
:101A200045FFD920FFF742FFF120FFF73FFFDA2003
:101A3000FFF73CFF1220FFF739FFDB20FFF736FFEF
:101A40004020FFF733FF2020FFF730FF0220FFF791
:101A50002DFF8D20FFF72AFF1420FFF727FFA4207A
:101A6000FFF724FFA720FFF721FFAF20FFF71EFF9E
:101A70000020FFF757FF00210020FFF73EFF01BDC8
:101A80002DE9F84304000D00160000275FF0000860
:101A90005FF000095FFA89F916F8090000282CD0D8
:101AA0005FFA89F916F8090020380700E4B27F2CA4
:101AB00002DB002004006D1C2900C9B22000C0B266
:101AC000FFF71BFF002080465FFA88F8B8F1060F89
:101AD0000FDADFF8A805FFB2062101FB07F1084481
:101AE0005FFA88F810F80800FFF7B6FE18F1010851
:101AF000EAE7A41D19F10109CCE7BDE8F1832DE95E
:101B0000F84304000D00160000275FF000085FF0A6
:101B100000095FFA89F916F80900002842D05FFA37
:101B200089F916F8090020380700E4B2792C02DBA5
:101B3000002004006D1C2900C9B22000C0B2FFF7CC
:101B4000DCFE002080465FFA88F8B8F1080F0BDA57
:101B5000DFF82C05FFB2390151FA88F1405CFFF73C
:101B60007BFE18F10108EEE7691CC9B22000C0B283
:101B7000FFF7C3FE002080465FFA88F8B8F1080F2F
:101B80000CDADFF8FC04FFB2390151FA88F108449D
:101B9000007AFFF761FE18F10108EDE7083419F14A
:101BA0000109B6E7BDE8F1832DE9F84304000D0013
:101BB000160000275FF000085FF001095FFA88F85F
:101BC00016F80800002800F08D8000200700012092
:101BD0008146DFF8B004FFB2C05D80281DDBDFF86E
:101BE000A404FFB2C05D5FFA88F816F808108842B6
:101BF00011D1DFF89004FFB2384440785FFA88F8DA
:101C000006EB08014978884205D1FFB20E2017FB88
:101C100000F0814601E0BF1CDBE7E4B2772C02DB79
:101C2000002004006D1C2900C9B22000C0B2FFF7DB
:101C300064FE1FFA89F9B9F1010F2DD02900C9B24C
:101C40002000C0B2FFF759FE00200700FFB20E2FA0
:101C50000BDADFF834041FFA89F910F80900FFF7EE
:101C6000FBFD19F101097F1CF0E7691CC9B22000D6
:101C7000C0B2FFF742FE00200700FFB20E2F2DDAA0
:101C8000DFF804041FFA89F910F80900FFF7E4FDF2
:101C900019F101097F1CF0E718F101082900C9B208
:101CA0002000C0B2FFF729FE00200700FFB2102F6E
:101CB00004DA0020FFF7D0FD7F1CF7E7691CC9B2EA
:101CC0002000C0B2FFF719FE00200700FFB2102F5E
:101CD00004DA0020FFF7C0FD7F1CF7E70E3418F18F
:101CE00002086BE7BDE8F183F8B504000D001600AB
:101CF0000027FFB2F05D00282BD0FFB2F05D8028F6
:101D000016DBFFB2F05D8DF80000FFB206EB0700B6
:101D100040788DF8010000208DF802006A46290005
:101D2000C9B22000C0B2FFF73FFF0E34BF1CE0E78E
:101D3000FFB2F05D8DF8000000208DF801006A46CA
:101D40002900C9B22000C0B2FFF7D9FE08347F1CB9
:101D5000CFE7F1BD2DE9FC4180460C0015001E00C7
:101D60000027684600210022C0E900125FFA88F8C7
:101D70005FEAC808ADB242F2107095FBF0F00A219C
:101D800090FBF1F201FB12008DF80000ADB24FF4B0
:101D90007A7095FBF0F00A2190FBF1F201FB120042
:101DA0008DF80100ADB2642095FBF0F00A2190FBA4
:101DB000F1F201FB12008DF80200ADB20A2095FB92
:101DC000F0F00A2190FBF1F201FB12008DF8030004
:101DD000ADB20A2095FBF0F100FB11508DF8040024
:101DE00000200700FFB2052F08DA6846FFB2C05D89
:101DF00030306946FFB2C8557F1CF3E76846F6B23B
:101E000071420844421D2100C9B24046C0B2FFF7EA
:101E100037FEBDE8F3812DE9FC4180460C0015003A
:101E20001E000027684600210022C0E900125FFA68
:101E300088F85FEAC808ADB242F2107095FBF0F086
:101E40000A2190FBF1F201FB12008DF80000ADB207
:101E50004FF47A7095FBF0F00A2190FBF1F201FB50
:101E600012008DF80100ADB2642095FBF0F00A215C
:101E700090FBF1F201FB12008DF80200ADB20A20D6
:101E800095FBF0F00A2190FBF1F201FB12008DF8B6
:101E90000300ADB20A2095FBF0F100FB11508DF864
:101EA000040000200700FFB2052F08DA6846FFB2E1
:101EB000C05D30306946FFB2C8557F1CF3E7684605
:101EC000F6B271420844421D2100C9B24046C0B278
:101ED000FFF715FEBDE8F3812DE9F24F86B007004C
:101EE00092469B46DDF8409001246846002100227E
:101EF00000230EC00C380125002600200021CDE96A
:101F000004015FF00008FFB2FF005046594601F09F
:101F1000ADF90600B6B2300001F0DEF902000B00A8
:101F20005046594601F0E6F9CDE90401DDE9042304
:101F30000020DFF8581101F09DFA01F097F9804672
:101F4000B6B20A2096FBF0F090FBF5F0002803D023
:101F50000A204543641CF3E7B6B242F2107096FBC8
:101F6000F0F00A2190FBF1F201FB12008DF8000065
:101F7000B6B24FF47A7096FBF0F00A2190FBF1F2C2
:101F800001FB12008DF80100B6B2642096FBF0F060
:101F90000A2190FBF1F201FB12008DF80200B6B2AB
:101FA0000A2096FBF0F00A2190FBF1F201FB1200EF
:101FB0008DF80300B6B2012096FBF0F00A2190FBE9
:101FC000F1F201FB12008DF804002E208DF80500BF
:101FD0001FFA88F84FF47A7098FBF0F00A2190FB12
:101FE000F1F201FB12008DF806001FFA88F8642058
:101FF00098FBF0F00A2190FBF1F201FB12008DF842
:1020000007001FFA88F80A2098FBF0F00A2190FBDD
:10201000F1F201FB12008DF808001FFA88F80A207F
:1020200098FBF0F100FB11808DF809000020694653
:102030005FFA89F949448871002005000A2D06DA03
:102040006846405D3030694648556D1CF6E72E20E5
:102050008DF80500002069465FFA89F949448871C6
:102060006846E4B261420844421D9DF818103800E9
:10207000C0B2FFF744FD07B0BDE8F08FA8C500006F
:102080003CA2000098CC0000ACBA00000088C3401D
:10209000F8B5040001200500EDB2072D80F2E380C1
:1020A0002900C9B20020FFF728FC00200600F6B284
:1020B000502E80F2D680EDB24FF4A06000FB05F008
:1020C0002044F6B210F81600EDB24FF4A06101FB07
:1020D00005F12144F6B201EB4601497851FA80F04E
:1020E000022190FBF1F0EDB24FF4A06101FB05F18C
:1020F0002144F6B201EB460191F8A01050FA81F0AC
:10210000EDB24FF4A06101FB05F12144F6B201EB01
:10211000460191F8A11050FA81F0EDB24FF4A061A0
:1021200001FB05F12144F6B201EB460191F84011A3
:10213000EDB24FF4A06202FB05F22244F6B202EBCC
:10214000460292F8412152FA81F110EB4100EDB2C2
:102150004FF4A06101FB05F12144F6B201EB460109
:1021600091F8E011EDB24FF4A06202FB05F22244B7
:10217000F6B202EB460292F8E12152FA81F110EB3D
:102180008100EDB24FF4A06101FB05F12144F6B2EC
:1021900001EB460191F88012EDB24FF4A06202FB10
:1021A00005F22244F6B202EB460292F8812252FA7C
:1021B00081F110EBC100EDB24FF4A06101FB05F11C
:1021C0002144F6B201EB460191F82013EDB24FF431
:1021D000A06202FB05F22244F6B202EB460292F83C
:1021E000212352FA81F110EB0110EDB24FF4A061FE
:1021F00001FB05F12144F6B201EB460191F8C01351
:10220000EDB24FF4A06202FB05F22244F6B202EBFB
:10221000460292F8C12352FA81F110EB4110EDB25F
:102220004FF4A06101FB05F12144F6B201EB460138
:1022300091F86014EDB24FF4A06202FB05F2224463
:10224000F6B202EB460292F8612452FA81F1402282
:1022500002FB010007003800C0B2FFF7FDFA761C50
:1022600025E76D1C18E707210020FFF746FB00203B
:102270000600F6B2502E47DAF6B204EB46004FF4F1
:102280000C51405CF6B204EB460142F20132895C2B
:1022900051FA80F0022190FBF1F0F6B204EB460116
:1022A00042F2A032895C50FA81F0F6B204EB4601AA
:1022B00042F2A132895C50FA81F0F6B204EB460199
:1022C0004FF41152895CF6B204EB460242F24143EC
:1022D000D25C52FA81F110EB4100F6B204EB4601F8
:1022E00042F2E042895CF6B204EB460242F2E1437C
:1022F000D25C52FA81F110EB810007003800C0B2C5
:10230000FFF7AAFA761CB4E7F1BD000180B5DFF84B
:102310000C2900210020FFF7B3FB0223DFF800099E
:10232000027892B200212520FFF714FDDFF8F4288F
:1023300000214620FFF7A4FB0223DFF8EC08027817
:1023400092B200212D20FFF705FD0323DFF8DC0802
:10235000027892B201212D20FFF7FCFC0323DFF865
:10236000CC08427892B202212D20FFF7F3FC04231F
:10237000DFF8BC080088020092B204212D20FFF78C
:10238000E9FC0223DFF8AC08428805212D20FFF785
:10239000E1FC0223DFF8A008027892B206212D208A
:1023A000FFF7D8FCDFF8940890F90000002806D168
:1023B000DFF88C2803216420FFF762FB32E0DFF8AE
:1023C0007C0890F90000012806D1DFF87828032165
:1023D0006420FFF755FB25E0DFF8600890F9000066
:1023E000022806D1DFF8602803216420FFF748FBAC
:1023F00018E0DFF8480890F90000032806D1DFF85C
:102400004C2803216420FFF73BFB0BE0DFF82C088E
:1024100090F90000042805D1DFF834280321642056
:10242000FFF72EFBDFF82C08FFF732FE01BD00B5E9
:1024300083B0DFF8E82700210020FFF721FB02230B
:10244000DFF8DC07027892B200212520FFF782FC3A
:10245000DFF8D02700214620FFF712FB0223DFF828
:10246000C807027892B200212D20FFF773FCDFF835
:10247000B0070078012868D10323DFF8DC07027871
:1024800092B201210020FFF7C6FCDFF8D02701211E
:102490001E20FFF729FC0323DFF8C407028801216F
:1024A0002B20FFF7B8FC0323DFF8B807027892B2BD
:1024B00003210020FFF7AFFCDFF8AC2703211E202B
:1024C000FFF712FC0323DFF8A407028803212B2067
:1024D000FFF7A1FC0323DFF89807027892B20521E9
:1024E0000020FFF798FCDFF88C2705211E20FFF75E
:1024F000FBFB0323DFF88007028805212B20FFF771
:102500008AFCDFF8782707210020FFF7B9FADFF807
:102510007007B0F90000002805D4C2A2072150209E
:10252000FFF7AEFA04E0C0A207215020FFF7A8FA97
:10253000DFF84C07B0F9000001F06DF80423020049
:1025400092B207212B20FFF705FCDFF8D4060078B4
:10255000022872D101A800210160684600210160B3
:10256000DFF8200740788DF80400DFF8180780783E
:102570008DF80500DFF8100740788DF80000DFF8CF
:10258000080780788DF80100DFF80027012100207E
:10259000FFF7AAFB0323DFF8F806028803210020D7
:1025A000FFF739FCDFF8EC2604212820FFF768FA52
:1025B0000323DFF8E406028803212B20FFF72BFC1E
:1025C0009AA206210920FFF75BFA01AA0721092038
:1025D000FFF756FA96A206212A20FFF751FA6A461B
:1025E00007212A20FFF74CFADFF8B00690F9000027
:1025F000012806D1DFF8A82606214620FFF774FB44
:1026000012E0DFF8980690F90000022806D1DFF802
:10261000942606214620FFF767FB05E0DFF88826B1
:1026200006214620FFF760FB0123DFF880060278D1
:1026300092B201212820FFF7EEFBDFF8E4050078D5
:1026400003281ED1DFF8680690F9000002280CD19B
:10265000DFF8602602210020FFF746FBDFF8542652
:1026600004210020FFF740FB0BE0DFF84C2602219D
:102670000020FFF739FBDFF8402604210020FFF798
:1026800033FBDFF89C050078042859D10423DFF8D8
:102690002C06028801210020FFF7BDFBDFF8202671
:1026A00001212320FFF720FB0423DFF8180602880E
:1026B00001212B20FFF7AFFB0423DFF80C06028873
:1026C00003210020FFF7A7FBDFF8002603212320CA
:1026D000FFF70AFB0423002203212B20FFF79BFBBB
:1026E0000423DFF8EC05028805210020FFF793FBA7
:1026F000DFF8E02505212320FFF7F6FA0423DFF8B1
:10270000D805028805212B20FFF785FB0223DFF87F
:10271000CC05028807212320FFF71CFB0223DFF8EA
:10272000C005028807212820FFF714FB69A20721B2
:102730000020FFF7A5F968A207216420FFF7A0F9A0
:10274000DFF8DC04007805286BD1DFF8982501213B
:102750000F20FFF7C9FADFF8D804B0F9000000280D
:1027600005D430A201215020FFF78AF904E02EA2FF
:1027700001215020FFF784F9DFF8B404B0F900001C
:1027800000F049FF0323020092B201212B20FFF742
:1027900042FBDFF8542503210F20FFF7A5FADFF8ED
:1027A0004C05B0F90000002805D41EA203215020DA
:1027B000FFF766F904E01CA203215020FFF760F93F
:1027C000DFF82805B0F9000000F025FF0323020020
:1027D00092B203212B20FFF71EFBDFF81425052101
:1027E0000F20FFF781FADFF80C05B0F90000002890
:1027F00005D40CA205215020FFF742F904E00AA2FB
:1028000005215020FFF73CF9DFF8E804B0F900009B
:1028100000F001FF0323020092B205212B20FFF7F5
:10282000FAFA07BD2B0000002D000000696E0000C1
:102830006F75740080B5DFF8C02400210020FFF719
:1028400053FADFF8B82402211620FFF74DFA0323CC
:10285000DFF8AC04027892B203212D20FFF77AFA58
:102860000323DFF8A004027892B203210020FFF7CF
:1028700071FADFF8942404211620FFF735FA0323B8
:10288000DFF87C04427892B205212D20FFF762FA2E
:102890000323DFF87004427892B205210020FFF78D
:1028A00059FADFF8682406211620FFF71DFA0323E2
:1028B000DFF84C04827892B207212D20FFF74AFA04
:1028C0000323DFF84004827892B207210020FFF74B
:1028D00041FA01BD76610000736D000080B5CF4AFA
:1028E00000210020FFF7CCF80223CD48027892B2F5
:1028F00000212520FFF72EFA5CA201210020FFF71E
:10290000BFF80223DFF80804027892B201212520E3
:10291000FFF720FAC34A01214620FFF7B1F802234E
:10292000C148027892B201212D20FFF713FABC486A
:102930000078012823D14EA202210020FFF7D4F90C
:1029400002200090DFF8CC03006800F05DFA02007E
:102950000B0002212420FFF7BFFA46A20421002029
:10296000FFF7C2F902200090DFF8AC03006800F026
:102970004BFA02000B0004212420FFF7ADFAA8480F
:102980000078022828D1DFF8942302210020FFF7E5
:10299000ABF90223DFF88803028802212D20FFF71C
:1029A0003AFADFF8802304210020FFF79DF9022383
:1029B000DFF87403028804212D20FFF72CFADFF8DA
:1029C0006C2306210020FFF78FF90423D8480288E2
:1029D00006212B20FFF71FFA91480078032832D1F7
:1029E00025A202210020FFF77FF902200090D148A4
:1029F000006800F009FA02000B0002212420FFF712
:102A00006BFA1EA204210020FFF76EF9022000904D
:102A1000C948006800F0F8F902000B0004212420E6
:102A2000FFF75AFA16A206210020FFF75DF90220EF
:102A30000090C248006800F0E7F902000B00062190
:102A40002420FFF749FA7648007804280DD1BC4AC3
:102A500002210A20FFF748F90523BA48008802003E
:102A600092B205212B20FFF7D6F901BD726F7700D6
:102A7000535F5000535F4400435F5000435F440086
:102A800043324D0080B5654A00210020FEF7F8FF73
:102A900002236348027892B200212520FFF75AF9F9
:102AA0005BA201210020FEF7EBFF02239848027889
:102AB00092B201212520FFF74DF95A4A0121462003
:102AC000FEF7DEFF02235848027892B201212D2042
:102AD000FFF740F952480078012818D19A48007849
:102AE00001280AD1994A02210020FFF7FDF8974AF0
:102AF00004210020FFF7F8F809E0954A02210020A0
:102B0000FFF7F2F8924A04210020FFF7EDF844485D
:102B10000078022818D18F48007801280AD18E4AFF
:102B200002210020FFF7E0F88B4A04210020FFF784
:102B3000DBF809E0894A02210020FFF7D5F8874A2F
:102B400004210020FFF7D0F835480078032823D16E
:102B50007D48007801281FD1814A02210020FFF71B
:102B6000C3F8804890F90000012805D17E4A04216D
:102B70000020FFF7B9F80FE07A4890F9000002282A
:102B800005D17A4A04210020FFF7AEF804E0784A24
:102B900004210020FFF7A8F821480078042836D146
:102BA0006948007801281CD16E4890F9000001287E
:102BB00017D1704A02210020FFF796F86E4800787E
:102BC000002805D113A204212D20FFF78DF808E07D
:102BD00069480078012804D10FA204212D20FFF7B5
:102BE00083F859480078012811D15E4890F9000017
:102BF00002280CD1614A02210020FFF775F8022358
:102C00005F48027892B204212D20FFF704F901BD3C
:102C1000726F77004F4646004F4E200010D20000E2
:102C2000710CFF1F18D20000730CFF1F0640FF1F1E
:102C3000EE3FFF1F743EFF1F5A40FF1F0C3DFF1F5A
:102C400020D2000028D2000030D2000038D200008C
:102C500040D20000140EFF1F5140FF1F48D2000059
:102C6000E23FFF1F5240FF1F50D20000E43FFF1F12
:102C70005340FF1F58D20000E63FFF1F14D1000051
:102C8000F43FFF1FD03EFF1FD43EFF1F60D2000065
:102C9000680CFF1F68D20000FC3FFF1F6440FF1F4D
:102CA00070D2000078D2000080D200006540FF1F83
:102CB0006F0CFF1F88D2000090D200001040FF1F51
:102CC00098D200000840FF1F1A40FF1FA0D200004A
:102CD0001440FF1FA8D200000A40FF1F2240FF1F20
:102CE0002040FF1F20D100002CD10000F03FFF1F2B
:102CF000B0D20000F23FFF1F38D1000044D10000E5
:102D0000103DFF1F143DFF1F50D100005CD100009B
:102D1000720CFF1FF43CFF1FF83CFF1F68D100003E
:102D20003840FF1F74D100003A40FF1F80D10000DF
:102D30003640FF1FFC3CFF1F003DFF1F043DFF1FEF
:102D40008CD100006C0CFF1F6640FF1F98D1000063
:102D5000A4D100006040FF1FB0D10000BCD1000032
:102D6000C8D100006140FF1FD4D10000E0D10000B5
:102D7000ECD10000D4D000008040FF1FE4D0000060
:102D80006240FF1F90EA010F44BF81F0004100F054
:102D90004FBC00BF421A3CBF801A89184FF0004C4C
:102DA000C0F3C752FF2A24D0C1F3C75313B3D21ABA
:102DB000D2F1190327DD4CEA01214CFA03F321EA91
:102DC0000303D140C20D4CEA0020401834BF20EA72
:102DD0000C004CEA5000D20553EA006373EB0C0C74
:102DE00052EB1020420012F1807F38BF7047C00DB7
:102DF000C0057047490212BF9A4200EB5120F8E724
:102E0000D2F11703D9D570475FF0FF0C1CEAD051FF
:102E100014BF614506E0C110400721F0E04101F117
:102E20006051704779B900F0004100020AD0B0FA51
:102E300080FC00FA0CF001F16051A1EB0C5101EBA8
:102E4000D0214005704741020CBF40F4E0016FF013
:102E50000001002070470000F0B44FF0004591EAF7
:102E6000030C44BF6B4000F04FBA00BF841A71EBF3
:102E7000030603D2001BB141121973414FF4001C29
:102E80001CEB410F34BF7CEB430443E00C0DA4EB7F
:102E90001356352E50DC45EAC323DB0A45EAC1212F
:102EA000C912B6F120050DDD63FA05F6EB4086EA9E
:102EB0000305124218BF45F00105C01851F1000189
:102EC0000CD213E062FA06F5F2405540F3415A4045
:102ED000B340F3405A408018594107D349085FEA8C
:102EE00030005FEA350528BF45F0010501F5801186
:102EF000420875F1004250F1000041EB0451F0BC72
:102F00004FF4001C1CEB410F38BF70470020090D27
:102F1000090570471CEB410F10D252EA43060BD053
:102F2000BCEB410F05D80C0DAB43661E342EB5DD4E
:102F300002E0AB4380185941F0BC7047F0BC7047C9
:102F40004FEAF17CBCF1E04C2CBFBCF5001F11E056
:102F50005FEA4C0C34BFBCF17F5F2EE05FEA9C0C53
:102F60004FEA0C1C4FEA3C0CC10071F100414CEBE4
:102F700050707047C90241EA5051C00218BF41F079
:102F8000010141F000414FEA6C50C0F109002128D5
:102F900010D240EACC7CCCF1200C11FA0CF070F18C
:102FA0000040CCF1200C21FA0CF00CF0004C40EB6E
:102FB0000C0070474FEACC707047490011F5001FB4
:102FC00004D84FEACC10FF30C0057047C8177047CF
:102FD0004FF0807C1CEB400F94BF1CEB410F05E0D1
:102FE00040EA010C5FEA4C0C01D28842704718BFDE
:102FF000814270474FF0807C1CEB400F94BF1CEB6C
:10300000410F05E040EA010C5FEA4C0C01D281421D
:10301000704718BF88427047FF2212EAD05C1DBF7C
:1030200012EAD153944593422BE09C44D30780EAA3
:1030300001021A4043EA002043EA0121A1FB0030CB
:10304000410038BF40007CF17F010BDBFE294ADAEA
:103050005B0842EAC15153EA006373F1004C51EB43
:1030600010207047D1F1080CDCF120012FDB5B0848
:1030700010FA01F10B4373F1004120FA0CF05041BA
:10308000704794451CBF02EAD153934280EA010283
:1030900002F000421DD0400019D0490017D05BB9A2
:1030A000634514D00902B1FA81F39940BCEB030CDB
:1030B000C00140F00040C1E70002B0FA80FC10FA05
:1030C0000CF0B3EB0C0CC90141F00041B6E7100065
:1030D000704740000AD0490008D010F1807F94BFAB
:1030E00011F1807F02E042F0FF407047D04370470B
:1030F0004100090E7F3915D4D1F11F0114D44000CD
:1031000007D2C00140F00040C84048BF6FF0004007
:103110007047C00140F00040C8404CBF4FF0004035
:10312000404270470020704700424FF0004058BFB7
:10313000C043704710B42B4A13684FF40074020068
:10314000D2B2520914FA02F21A43264B1A60264AE6
:10315000C0B2431152F82320012310F01F04A340F2
:10316000C2F8A030204AC0B2431152F82320C0B2A6
:1031700010F01F0342F8231010BC704710B4194A16
:1031800013684FF400740200D2B2520914FA02F22A
:103190001A43144B1A60144AC0B2431152F8232048
:1031A000012310F01F04A340C2F8A03031F4E06105
:1031B0000D4AC0B2431152F82320C0B210F01F03D1
:1031C00052F8232012F4E0621143074AC0B24311BF
:1031D00052F82320C0B210F01F0342F8231010BC95
:1031E0007047000038800440980BFF1F38B504007A
:1031F0000D002A002100184800F086FA17480068E0
:103200004FF47A7101FB00F10320FEF7C5FAF0E7F5
:1032100038B504000D00210049B2002000F0A9FBE0
:10322000200032BD10B50E4804680E48E4B20F21EC
:1032300001FB04F100EB0102E4B221000A4800F0B6
:1032400063FA064800684FF47A7101FB00F103202D
:10325000FEF7A2FAE9E7000094CF0000803FFF1FCD
:1032600004ED00E02804FF1F2CCD0000F446400DC3
:1032700040EAC120490006D200F014F8004248BFDD
:103280006FF00040604700F00DF84FF000418842B9
:103290008CBF084640426047400D40EAC1204900CB
:1032A00080F00D8040F00040490DA1F58061491C7F
:1032B00005D4D1F11F0154BFC840C01770474FF06B
:1032C00000007047010040F10980F446404200F0E0
:1032D00005F851F000416047010000BF09D0B0FA85
:1032E00080F18840C91CC1F58461090501EBD0213A
:1032F00040057047F0B44FF0004591EA030F44BF1A
:103300006B40FFF7B3BD00BF841A71EB030604D214
:103310006E40001BB141121973414FF4001C1CEBAD
:10332000410F34BF7CEB430684E00C0DA4EB135635
:10333000362E7DDC012E43DC45EAC32343EA52539B
:1033400012BFD20292025B08240545EAC12141EA7C
:103350005051D2EBC020994125D407D1B0FA80F664
:1033600010FA06F164D00020203608E0B1FA81F6A8
:10337000B140C6F1200220FA02F21143B0404FEAF8
:10338000F474B4EB465434F001064FEA74040AD8DE
:10339000D6F50016760D04F00044F04061FA06F20E
:1033A0005040F1404840C00A40EA415021F00041FD
:1033B00028BF5FEA500550F1000044EBD12137E00F
:1033C00045EAC323DB0A45EAC121C90AB6F1200553
:1033D0000EDD42EA0242120CC5F1200603FA06F69F
:1033E000EB4042EA06056D42984161F100010DE0B3
:1033F00062FA06F5F240554063FA06FC82EA0C02D6
:10340000F3405A406D42904161EB030111F4801F7B
:1034100005D1641E620502D06D004041494121F48E
:103420008011430875F1004350F1000041EB045155
:10343000F0BC70471CEB410F15D223F0004352EA59
:1034400043060BD04FEA4C0CBCEB410F04D80C0DDB
:10345000661E342EB7DDEBE7801A994150EA41062B
:1034600008BF0021E4E708BF1CEB430F28BF6FF043
:103470000001DDE7B0B581EA030C0CF0004C40F22E
:10348000FF7515EA11541DBF15EA1357AC42AF4240
:1034900039E0E41923EA455343F48013C90241F0AB
:1034A000004141EA505EC7021100A7FB020200285A
:1034B0004FF00000EEFB01204FF00001E3FB07217D
:1034C00018BF42F00102401800214941E3FB0E0100
:1034D000A4F580640F0302D252004041494154F1E7
:1034E00001046CDD470872F1004250F1000051EB1D
:1034F0000451A1F580115CBF41EA0C01B0BD4CEA5A
:1035000005510020B0BD05EA1357AC4214BFAF42CD
:1035100041E050EA410E1CBF52EA430E02E0614610
:103520000020B0BD24423C441BD15FEA070EF6D018
:10353000090302BF01460020AEF1140EB1FA81F773
:10354000AEEB070401FA07FE0C37C7F1200100FAC1
:1035500007F7C8404EEA000E23EA455343F48013B0
:10356000A2E733F00043B3FA83F704BFB2FA82FE56
:1035700077440B3FE41BB7F1200E2FBF02FA0EF386
:10358000BB40C7F1200E22FA0EFE38BF43EA0E03FD
:10359000BA40641C82E750EA410E14BF52EA430E5F
:1035A0006FF000014FF4001717EB430F8ABF194665
:1035B00017EB410FB5E74CEA05510020B0BDD4F13F
:1035C0000104B4F120070FDAC4F12007520828BF24
:1035D00042F0010210FA07F501FA07F7E1BF2A43AA
:1035E000E0403843E1400FE0352C98DCC7F120047F
:1035F00052EA400220FA07F218BF42F0010231FA03
:1036000007F0A1400A43002172F1004250F100008E
:1036100051EB0C01B0BD002848BF4042704700008C
:1036200090EA010F44BF81F00041FFF7B3BB00BF38
:10363000431A4FF000423EBF5340C01AC91800BFA2
:10364000D3095FEAD05C13EB400F34BFB3EB410FFB
:1036500040E07CEBD1530CD342EA012122D8D1EBDC
:10366000402009D3400A28BF5FEA500140EBCC500C
:103670007047401A15D04002B0FA80F2521C9040B8
:10368000400A4FEA3C23B3EB026384BF00EB7300B4
:1036900007E040F400001A16DB07C2F10102D04037
:1036A00018437047182BFCDC31FA03F202FA03F3DB
:1036B000591A38BF42F00102D2EB40203CBF400013
:1036C000ACF1010C5FEACC5CC20572F100414CEB3D
:1036D0005020704713EB400F0FD24B0009D0ACEBDA
:1036E000D153022B03DB4902172BDDDD70479143D9
:1036F000401A4300D5D10020704713EB410FD0D3BF
:103700006FF00000704700000EB400B582B003A94E
:10371000009102466B460121034878440A3000F0CC
:103720006BF906BC5DF810FB75990000012110F0E3
:103730001F029140DFF8A42240B2430942F823104F
:1037400070472DE9F84304000D0064B2002C08D046
:10375000022C2CD018D3042C4FD03BD3052C5FD097
:1037600071E0DFF87C02006850F48060DFF87012CE
:1037700008604FF440713020FFF7DCFC4FF44071DB
:103780003120FFF7D7FC5EE0DFF85402006850F408
:103790000060DFF84C1208604FF440714320FFF7DF
:1037A000C9FC4FF440714420FFF7C4FC4BE0DFF844
:1037B0003002006850F48050DFF8241208604FF4A3
:1037C00040716320FFF7B6FC4FF440716220FFF7B1
:1037D000B1FC38E0DFF80802006850F40050DFF870
:1037E000001208604FF440715020FFF7A3FC4FF423
:1037F00040715120FFF79EFC25E0DFF8E8010068EA
:1038000050F48060DFF8DC1108604FF440719920BB
:10381000FFF790FC4FF440719820FFF78BFC12E00B
:10382000DFF8C001006850F40060DFF8B8110860EC
:103830004FF440718920FFF77DFC4FF440718820E0
:10384000FFF778FCFFE7DFF8A00164B250F824002E
:10385000C07810F0F300DFF8901164B251F8241032
:10386000C870DFF8840164B250F824008078DFF873
:10387000781164B251F82410887064B2002C02D020
:1038800064B2012C06D1594800684FF47A7148435C
:10389000814605E0564800684FF47A7148438146F6
:1038A0002801B9FBF0F00600B6B2B6F5005F02DB06
:1038B00041F6FF700600B9FBF5F0B6B2B0EB0610AA
:1038C0000700BFB2202F04DB40F203114948FFF785
:1038D0008DFC454864B250F82400007810F0E000F8
:1038E0008046C6F3042050EA08003F4964B251F80C
:1038F000241008703C4864B250F8240046703A48DE
:1039000064B250F82400807A10F0E000804617F08E
:103910001F0050EA0800344964B251F8241088723C
:10392000314864B250F82400007C50F088002E49E1
:1039300064B251F8241008742B4864B250F8240083
:10394000C07850F00C00284964B251F82410C870B7
:10395000BDE8F183244A40B252F820201279920641
:10396000F8D5214A40B252F8202092F907200A7077
:1039700070471D4A40B252F8202012791206F8D53D
:10398000194A40B252F82020D171704770B5040036
:103990000D0016003000461E002809D095F90000E1
:1039A000010049B2200040B2FFF7E3FF6D1CF1E7D0
:1039B00070BD10B504000C4864B250F82400C07803
:1039C00050F02000084964B251F82410C87064B265
:1039D00060002D3040B2FFF7A9FE10BD00E100E00D
:1039E0003480044028800440AC0BFF1F783FFF1F49
:1039F000803FFF1F1CCE00002DE9F04FA1B0824692
:103A000001AE002017461D467160B0620DF14409F9
:103A10000AE017F8011B7068D0470028706000F0BA
:103A2000B382B06A401CB0623878010001D1B06A3C
:103A3000ACE22528EDD1002030617061B061F06109
:103A40003062706201E040F0010017F8011F202988
:103A5000F9D023290DD02B2904D02D2906D03029C7
:103A60000AD00CE040F0020080B2EEE740F0040023
:103A7000FAE740F00800F7E740F01000F4E72A29E1
:103A80000ED12968296051F8042B2960002A32637D
:103A900004D5514240F00400316380B27F1C13E032
:103AA000002131630BE0316B6FF00043994205D088
:103AB00001EB810302EB4301303931637F1C3A781B
:103AC000A2F130010A29EED339782E2903D04FF024
:103AD000FF31F1621FE017F8011F2A2907D1296879
:103AE00029607F1C51F8042B2960F26213E0002149
:103AF000F1620BE0F16A6FF00043994205D001EBEF
:103B0000810302EB43013039F1627F1C3A78A2F164
:103B100030010A29EED3B0860FF6DC20397800F0A8
:103B200079FD08B117F8010B8DF83A009DF83A00BD
:103B3000682802BF39786829622005D06C2804BF44
:103B400038786C2803D171208DF83A007F1C11A8B9
:103B5000F06017F8014BB4F1250024D0203802287A
:103B600040F2C380133800F0E7800B3800F0548136
:103B7000401E00F02B81401E022840F2B680001F3C
:103B800000F02481401F00F08180401E00F0D480AE
:103B9000401E26D0C01E0BD0801E00F0CD80C01E5F
:103BA00000F0CA8042E125208DF84400012046E162
:103BB0002868286050F8048B2860C6F80880F46AEA
:103BC000002C04D5404600F031FD044607E02246B3
:103BD0000021404600F046FD08B1A0EB08047461E6
:103BE0002EE129682960002251F8040B29604FF06A
:103BF0003C0E0021CDE9000111A8B060DDE9000113
:103C00009142F46808BF904201D1F26AC2B100F05B
:103C10000F033033DBB23A2BA8BF2733AEF10102DA
:103C20000009A354964640EA017009090022914216
:103C300008BF904204D0B26804EB0E039A42E6D368
:103C400004EB0E01B160CEF13C00F16A7061884274
:103C500007DA081AF0614FF6EF71B08E0840B086AF
:103C6000EEE0002940F1EC8096F8341001F01401E8
:103C7000102940F0E580316B3269891AF269891A9E
:103C8000081A0128C0F2DC80F061D9E09DF83A0002
:103C900062281AD0682806D06A280CD06C281CD05C
:103CA000712808D019E02868286050F8041B2860A3
:103CB000B06A0880C4E02868286050F8042B2860A7
:103CC000B06AC117C2E90001BAE02868286050F85C
:103CD000041B2860B06A0870B2E02868286050F8B9
:103CE000041B2860B06A0860AAE02868C01D20F0A4
:103CF00007022A60D2E9000108322A60CDE90001FA
:103D0000002902D530692D2109E0B08E810702D546
:103D100030692B2103E0C00705D53069202109F85F
:103D20000010401C306111A831690844B060214680
:103D3000684600F0EBF983E09DF83A006C280DD05E
:103D4000712818BF6A2809D12868C01D20F0070211
:103D50002A60D2E9000108322A6005E0296829605A
:103D600051F8040B29600021CDE900019DF83A00CB
:103D7000682803D1DDE9000180B20BE0622803D19D
:103D8000DDE90001C0B205E0742818BF7A2804D12B
:103D9000DDE900010021CDE9000196F834000007BB
:103DA00031D5DDE900230020834208BF82422AD0BA
:103DB00044F02000782826D13069302109F800101D
:103DC000401C411C316109F800401CE09DF83A009C
:103DD000294600F0DEF8CDE90001DDE900230021ED
:103DE0008B4202DA30692D2109E0B08E810702D5BD
:103DF00030692B2103E0C00705D53069202109F87F
:103E00000010401C306111A831690844B06021469F
:103E1000684600F0F5F813E001203061286828605A
:103E200050F8041B28608DF8441009E025208DF817
:103E30004400012030611CB189F80140022030614A
:103E4000306B3169401AF169401A7169401A316A60
:103E5000401AB169401A716AA0EB010896F8340063
:103E6000400711D42020B8F1010F8DF840000BDB82
:103E70004446012310AA6946504600F0A5FB0028DD
:103E800040F08280641EF4D1D6F810B0BBF1000F70
:103E900011AC0CD014F8011B7068D047002870607A
:103EA00072D0B06A401CBBF1010BB062F2D130207D
:103EB0008DF84000F469012C09DB012310AA694642
:103EC000504600F081FB00285ED1641EF5D1D6F883
:103ED00014B0B468BBF1000F0CD014F8011B70686B
:103EE000D047002870604FD0B06A401CBBF1010B76
:103EF000B062F2D130208DF84000346A012C09DB29
:103F0000012310AA6946504600F05EFB00283BD111
:103F1000641EF5D1B0687169D6F818B04418BBF1C9
:103F2000000F0BD014F8011B7068D047706058B3B5
:103F3000B06A401CBBF1010BB062F3D130208DF8A8
:103F40004000746A012C08DB012310AA6946504620
:103F500000F03AFBC0B9641EF6D196F83400400771
:103F60007FF562AD2020B8F1010F8DF84000FFF61B
:103F70005BAD012310AA6946504600F025FB18B935
:103F8000B8F10108F5D14FE54FF0FF3021B0BDE8A1
:103F9000F08F622826D068281DD06A2808D06C28A7
:103FA00027D0712804D0742823D07A280CD020E0A0
:103FB0000868C01D20F007000860D0E90023083021
:103FC00008601946104670470A680A6052F8040BE8
:103FD0000A60002170470A680A6052F8040B0A6000
:103FE00000B20BE00A680A6052F8040B0A6040B2A3
:103FF00004E00A680A6052F8040B0A60C1177047AF
:104000002DE9F343054608462F696F2808BF0824A9
:1040100005D041F02001782914BF0A2410243C2641
:10402000D5E90023642818BF69289046994606D12F
:1040300000218B4203DAD8F1000869EB490900201E
:10404000814508BF80450CD1286B50B9082C38D168
:1040500095F83800000734D530203B2687F83B0020
:104060002FE0701E00900646404649462246E31760
:1040700000F024FB02F13000C0B23A2803DB9DF8C7
:10408000041051390818B855494640462246E317EE
:1040900000F014FB804689460020814508BF80451A
:1040A00003D0E868B9198842DBD3082C09D195F808
:1040B0003800000705D5B85D302802D0761E3020C4
:1040C000B855B919E960C6F13C00296BA86188426E
:1040D00008DA081A28624FF6EF71288F08402887FF
:1040E000BDE8F38300290ED595F8381001F01401CE
:1040F000102908D1696B6A69891A2A6A891A0E1A05
:10410000012EA8BF2E62BDE8F38300002DE9F34F16
:104110008BB0D0E90089006B002801AF48BF0620B2
:1041200005D404BF41F02000672802D101200B997B
:10413000086340F2FF720B984168C1F30A50904245
:1041400020D1080302BF0B98006800280AD10B9900
:10415000032088619DF8300061381A2858D30FF287
:10416000AC4109E00B99032088619DF8300061386B
:104170001A284AD30FF28C410B98C068032200F032
:1041800015FBFFE0012807DA0B9800F04AFB012835
:1041900002DB00230026ECE00B9ADFF854B15268F2
:1041A00040F2FE3161F31E520B994A6040F2FE313B
:1041B000401A00B247F2975148434E4990FBF1F63E
:1041C000404649460022002300F04EFB36B238BF7D
:1041D00089F00049C6F10707012F92461BDBF8075B
:1041E00007D552465B4640464946FFF743F98046AD
:1041F00089465046594652465B467F10FFF73AF9CA
:10420000002F82468B46EAD126E00FF2F431B3E765
:104210000FF2F431B0E77F420024374D12E0F80787
:1042200007D552465B4620462946FFF723F9044648
:104230000D465046594652465B46FFF71BF97F1024
:1042400082468B46002FEAD14046494622462B46FD
:1042500000F022FB804689469DF830000B99DFF87C
:104260009CB0096B40F02005662D0CBF06F10A00DA
:1042700006204718142FA8BF132730208DF80400FC
:104280000DF10504012F3BDB40464946FFF704F8DA
:10429000014604F1080204234FF00A0CB1FBFCFCB8
:1042A0000CEB8C04A1EB4401303102F8011C0A2113
:1042B000BCFBF1FE0EEB8E04ACEB440430345B1E11
:1042C000714602F8024DE7D1083F012F02F10804C0
:1042D000D8DBFFF701F802460B4640464946FFF798
:1042E00009F800225B46FFF7C5F880468946CBE710
:1042F00000002440A08601000000F03F84D79741D1
:104300000DF10500201A0DF1050702E0401E761E92
:104310007F1C39783029F9D0662D08BF711C03D075
:10432000652D0CBF012100210B9A126B8B181BB25B
:104330009842B8BF03461BB219001AD4814204DA6E
:10434000785C3528A8BF392000DA30207A18521E50
:1043500000E05B1E12F80149491E8442F9D0392859
:1043600002D1785C401C7854002902D57F1E5B1C6A
:10437000761C36B29DF830100B9800961BB23A4668
:1043800000F003F80DB0BDE8F08F2DE9F04786B0DE
:1043900006468A4690461D4600F0C7FB012D406A3E
:1043A000376B90F8009002DA01250FF264284AF08A
:1043B0002000BDF93840662808BF641C13D0672868
:1043C00040F08A8014F1040F75DBBC4273DA96F872
:1043D0003800641C000702D4BD42B8BF2F4624B287
:1043E0003F1B48BF002724B2F068B169012C23DAD3
:1043F0004A1C30234354012F03DA96F83800000793
:1044000003D5F06800F80290521CE742B8BF7C4226
:1044100024B260427062E719AF42B261B8BF3D4654
:10442000F068B3692DB2F5612A464146184400F0A0
:10443000BDF9781BB062B0E022469542084416DA16
:104440002A46414600F0B2F9B1696918601B012F94
:10445000B161706203DA96F83800000705D5F0689C
:1044600000F80190F069401CF061B76295E04146A8
:1044700000F09CF9B06920182D1B012F03DA96F883
:104480003810090703D5F16801F80090401CB061AD
:104490002DB2AF42B8BF3D46F068B3692DB22A468F
:1044A00008EB0401184400F081F9B0692818B061E4
:1044B000781B706271E0BD4204DA96F83810090783
:1044C00058BF2F467F1E48BF0027BAF1670F0CBFA9
:1044D0004FF0650A4FF0450AB169F368481CB061B6
:1044E000012F18F8012B5A5403DA96F838100907EF
:1044F00017D5F168431CB36101F80090012F10DB60
:104500006D1E2DB2AF42B8BF3D46F0682DB22A46AF
:104510004146184400F04AF9B0692818B061781B88
:104520007062F068B1690144200081F800A004D4F1
:104530002B20487001F1020804E02D224A7001F19D
:1045400002086442002502AF08E00A22684600F033
:1045500005FB019807F8010B6D1C009C21B2012995
:10456000F3DA022D06DA4AF02000652804BF302075
:1045700008F8010B4DB9302008F8010B07E06D1E5B
:1045800002A8405D303008F8010B012DF7DAF06821
:10459000B1690844A8EB0000F06196F8380000F01B
:1045A000140010280DD17069B1690818716A0818D3
:1045B000F1690818B16A0818716B8842BCBF081A03
:1045C000306206B0BDE8F087F8B504460D461646E1
:1045D0001F46002077B116F8011BA868A047A86005
:1045E00030B1E86A401CE86200207F1EF3D1F2BDC2
:1045F0004FF0FF30F2BD0000686A6C747A4C000026
:104600006E616E004E414E00696E6600494E460076
:10461000300000000278C9B28A421AB11CBF10F8FB
:10462000012FF9E718BF00207047000000F10103D7
:10463000810704D010F8011B89B18107FAD1026803
:10464000B2F10131914311F0803F04BF50F8042FC3
:10465000F6E710F8011B11B110F8011BFBE7C01AB7
:1046600070470000C9B2830706D0521E22D310F84B
:10467000013B9942F7D11FE0083A13D302F104023B
:1046800041EA012141EA014150F8043B121F21BFD8
:104690004B40A3F1013C2CEA030C1CF0803FF3D00B
:1046A000C9B2001F083210F8013B521E28BF91EA20
:1046B000030FF8D818BF0120401E70471B4213D1CA
:1046C000094236D12AB18446B0FBF2F002FB10C297
:1046D000704700F04BBAFCD30022002370470B0058
:1046E0000200002100207047904271EB030CF6D3CA
:1046F00070B5B1FA81F4B3FA83F52C1BA340C4F171
:10470000200532FA05F63343A2405FF00046E6404A
:1047100002E05B085FEA3202841A71EB030524BFF2
:10472000204629467641F4D302000B0030000021D8
:1047300070BD012ACFD970B5140C20D0B1FA81F424
:10474000B2FA82F5C4F120046419B4F12006D6D37C
:10475000B2405FF00044F440002502E052085FEAF6
:104760003303C61A71EB020E24BF30467146644112
:104770006D41F3D302000B002000290070BD0C46F0
:10478000B1FBF2F102FB11452D0445EA1045B5FBE2
:10479000F2F402FB145580B240EA0545B5FBF2F095
:1047A00002FB105240EA044070BD000062B38B0768
:1047B00008D0521E11F8013B00F8013B00F02480A4
:1047C0008B07F6D1830740F0208000BF103A07D353
:1047D00030B4B1E83810103AA0E83810F9D230BC43
:1047E000530724BFB1E80810A0E8081044BF51F8EF
:1047F000043B40F8043BD20724BF31F8022B20F8D9
:10480000022B44BF0B7803707047083A07D3B1E816
:104810000810083A40F8043B40F804CBF7D253079D
:10482000E4E730B4436803F000420121C3F313030B
:104830004360002B04BF0368002B08D10DE0036820
:10484000DD0F45EA440444605B000360491E446890
:10485000E302F4D5C4F31303436043681A43426090
:10486000084630BC704700004FF4001C1CEB410FA1
:1048700094BF1CEB430F09E041EA030C50EA4C0CD7
:1048800052EA0C0C03D2994208BF9042704714BF01
:104890008B428242704700002DE9F04140F2FF75E3
:1048A00081EA030C0CF0004C15EA11541DBF15EA07
:1048B0001357AC42AF42E9E0BC41C1F31301C3F36B
:1048C0001303801A994143F4801304D2641E4000FC
:1048D000494180185941C90241EA5051B1FBF3F6F0
:1048E00003FB1611A2FB0675D7EBC020A94102D22B
:1048F000761E80185941C90241EA5051B1FBF3FEBE
:1049000003FB1E11A2FB0E75D7EBC020A94103D2F9
:10491000AEF1010E80185941890241EA90517605A5
:1049200046EA8E2EB1FBF3F603FB1611A2FB0675C9
:10493000D7EB8020A94102D2761E80185941C902C6
:1049400041EA50514EEA060EB1FBF3F603FB161195
:10495000A2FB0675D7EBC020A94102D2761E8018B3
:104960005941C90241EA5051B1FBF3F703FB17115A
:10497000A2FB0735D3EBC020A94167F100070CBFAC
:10498000004247F0010766F3D5274FEA1E31B80809
:1049900014F5806414DDBD0775F1004250EB0E5034
:1049A00051EB045111F5801F5CBF41EA0C01BDE8D9
:1049B000F0814CF07F6141F0E0410020BDE8F081E2
:1049C000BD076D0840EA0E5041F48011D4F1010496
:1049D000B4F120060ADAC4F120060200E04001FA30
:1049E00006F3E1401843B24015430EE0342C14DCCA
:1049F000C6F1200445EA40056D0820FA06F2154389
:104A000021FA06F0A1400D43002175F1004250F15A
:104A1000000051EB0C01BDE8F08100205FEA0C01C1
:104A2000BDE8F081CFB992185B41B3FA83F704BFB8
:104A3000B2FA82F6BF190B3FB7F120062FBF02FA78
:104A400006F3BB40C7F1200622FA06F638BF33430F
:104A5000BA401CB1E419641E2FE77F4231F00041D7
:104A6000B1FA81F404BFB0FA80F6A4190B3CB4F19A
:104A700020062FBF00FA06F1A140C4F1200620FA5B
:104A800006F638BF3143A0403C1B16E7AC421ABFC4
:104A900005EA1357AF4214E050EA41061CBF52EA40
:104AA0004306BFE750EA4107304661461CBF41EA72
:104AB0000551BDE8F08152EA430C08BFC143BDE88F
:104AC000F08100204FF4001616EB410F98BF16EB53
:104AD000430F08BF16EB410F24BFC14305E016EB9F
:104AE000430F0CBF61464CEA0551BDE8F081000060
:104AF00080B5134800F03BF80FF24C020FF244016E
:104B00000160426241600FF24402826381600FF2F1
:104B10004402C1600161416181618162C1620163DE
:104B20004163C2630164416401BD10B5044800F0F3
:104B30001EF80446206808B9FFF7DAFF204610BDCA
:104B40008C40FF1F000000002E00000066616C73A7
:104B500065000000747275650000000091FBF2F3BF
:104B600003FB1211C0E90031704700007047704725
:104B700038B5DFF8780B0088DFF8741B0880DFF8A1
:104B8000940C0088DFF86C1B08800020DFF85C1BA9
:104B900008800B24E4B2322C48DAE4B2142C04DA94
:104BA0005FF08040DFF8501B0860E4B2142C07DB94
:104BB000E4B21E2C04DADFF8440BDFF83C1B08607B
:104BC000E4B21E2C07DBE4B2282C04DA5FF080404C
:104BD000DFF8241B0860E4B2282C06DBE4B2322C98
:104BE00003DA0020DFF8101B0860DFF8000BB0F9D3
:104BF000000000F07DFF0500DFF81C0CE4B2005D52
:104C00004F3800F075FFDFF8F01A0968FEF704FA74
:104C1000DFF8081C00F086FF2900FEF7B3F8FEF766
:104C200067FADFF8C81A0880641CB3E7DFF8F00BF6
:104C30004088DFF8EC1B0880DFF8E40B8088DFF8A1
:104C4000E01B4880DFF8D80BC088DFF8D41B8880D1
:104C5000DFF8CC0B0089DFF8C81BC880DFF88C0AAE
:104C60000088DFF8BC1B0881DFF8B40BB0F9000046
:104C7000DFF8AC1BB1F902100818DFF8A41BB1F97A
:104C800004104018DFF8981BB1F906104018DFF83F
:104C9000901BB1F908104018052190FBF1F0DFF8E6
:104CA000741B088001F02BF831BD0022DFF8743B43
:104CB0001A800B221000C0B23C281ADA0022110020
:104CC000C9B2A02913DADFF8602BC0B2A02303FB1E
:104CD00000F31A44C9B2525C002A06D1DFF8442B13
:104CE0001288521CDFF83C3B1A80491CE8E7401C44
:104CF000E1E7DFF8302B1288502392FBF3F2DFF864
:104D00002C3B1A70DFF8242B12785A2A0CDBDFF8C0
:104D1000202B1288782A07DB0122DFF8483B1A7023
:104D20000022DFF8443B1A70DFF8382B1278012A92
:104D300006D1DFF8342B1278521CDFF82C3B1A70A6
:104D4000DFF8202B1278012A0CD1DFF81C2B127807
:104D5000192A07DB0022DFF8103B1A700022DFF867
:104D6000043B1A707047F0B58FB068463C2100F0E4
:104D7000FFFF0020002100220023DFF8F06A96F9EF
:104D80000060012E24D10026DFF8007C3E70DFF8A1
:104D9000E06A3688072E04DBDFF8D46A7688072EAF
:104DA00006DADFF8D06A3678761CDFF8C87A3E700B
:104DB000DFF8C06A3678022E0ED1DFF8BC6A36788A
:104DC000DFF8B87A3F78F61BDFF8B47A3E8003E06C
:104DD0000026DFF8A07A3E70DFF8906A96F900604E
:104DE000022E40F0B081002635002DB2A02D06DA4B
:104DF0003B26DFF8907A2DB27E556D1CF5E70B2629
:104E000035002DB2962D41DA0E26340024B2322C14
:104E10003ADADFF8146AA02714FB07F73E442DB2F4
:104E20002E44B6F5F0763678DFF8FC795FF0A00C0A
:104E300014FB0CFC67442DB22F44B7F5A0773F78E4
:104E400057FA86F6DFF8E0795FF0A00C14FB0CFC53
:104E500067442DB22F4417F8A07CF61BDFF8C87901
:104E60005FF0A00C14FB0CFC67442DB27F5DF61BB9
:104E7000022E07D1D4F13B06FE3EDFF8087A2DB2B0
:104E80007E5501E0641CC1E76D1CBAE7DFF8F469E8
:104E900096F850603100DFF8F86A3678022E40F05C
:104EA0009C800026340024B23C2C05DA00266F4694
:104EB00024B23E55641CF6E70B26340024B2292C9C
:104EC00039DA002635002DB23D2D32DADFF8586987
:104ED000A02714FB07F73E442DB2765DDFF8487932
:104EE0005FF0A00C14FB0CFC67442DB22F447F78BC
:104EF00057FA86F6DFF830795FF0A00C14FB0CFC53
:104F000067442DB22F44BF78F61BDFF81C795FF0A1
:104F1000A00C14FB0CFC67442DB22F44FF78F61B49
:104F2000022E04D1EE1C6F4624B23E5501E06D1CEA
:104F3000C9E7641CC2E79DF80B603000DFF83C69EC
:104F40003678032796FBF7F6D6F18C063300DBB2F2
:104F5000792B00DA78230B26340024B2292C0CDAC2
:104F600006006F4624B23F5DF6B2BE4203D26E46E3
:104F700024B2365D3000641CEFE7DFF8106A367843
:104F8000002E06D1C0B2102803DA0226DFF8FC7921
:104F90003E70DFF8F8693678022E03D10F26300014
:104FA00082263300C0B2461D35001E00F6B22F0027
:104FB00036B23FB2BE4210DB0E00DFF8C8782DB229
:104FC0007F5DF6B2BE4206D3DFF8B8682DB2765DDB
:104FD00031002E0032006D1CE7E7DFF8B469367847
:104FE000012E40F09D800026340024B23C2C05DACE
:104FF0009F266F4624B23E55641CF6E70B2634000C
:1050000024B2292C3DDA9F2635002DB2642D36DBE3
:10501000DFF81468A02714FB07F73E442DB2765D35
:10502000DFF804785FF0A00C14FB0CFC67442DB291
:105030002F4417F8017C57FA86F6DFF8EC775FF01B
:10504000A00C14FB0CFC67442DB22F4417F8027C13
:10505000F61BDFF8D4775FF0A00C14FB0CFC674460
:105060002DB22F4417F8037CF61B022E05D12E001B
:10507000F61E6F4624B23E5501E06D1EC5E7641C66
:10508000BEE79DF80B603000DFF8EC673678032749
:1050900096FBF7F614363300DBB2282B00DB1E2319
:1050A0000B26340024B2292C0CDA6E4624B2365D6D
:1050B0000700FFB2BE4203D26E4624B2365D300016
:1050C000641CEFE7DFF8C4683678002E06D1C0B262
:1050D000902803DB0226DFF8B4783E70DFF8AC6876
:1050E0003678022E01D190263000C0B2461F35001E
:1050F0002E001F00FFB236B23FB2BE4210DB0E00E0
:10510000DFF880772DB27F5DF6B2BE4206D3DFF8BE
:1051100074672DB2765D31002E0032006D1EE7E718
:10512000DFF870683170DFF86C687270DFF86468FF
:105130003678DFF864783E70DFF858687678DFF804
:105140005C783E7003E00026DFF840783E700FB0D8
:10515000F0BD0020DFF828170880704700200021EC
:10516000DFF8142711700021DFF8102711700021DB
:10517000DFF8FC2611800021DFF8F42651800B2196
:10518000080029283BDADFF8F0160978DFF89826BE
:10519000A02303FB00F31A44927A5118DFF8D826B3
:1051A0001170DFF8D4160978DFF87C26A02303FB02
:1051B00000F31A44D27A5118DFF8BC261170DFF8D8
:1051C000BC160978DFF86026A02303FB00F31A441D
:1051D00092F895205118DFF8A4261170DFF89C167C
:1051E0000978DFF84426A02303FB00F31A4492F861
:1051F00094205118DFF884261170401CC1E70F215C
:10520000080029285CDADFF868160988DFF8182614
:10521000A02303FB00F3D25C8918DFF85426118029
:10522000DFF84C160988DFF80026A02303FB00F303
:105230001A44527851FA82F1DFF834261180DFF8EF
:1052400030160988DFF8E025A02303FB00F31A4499
:10525000927851FA82F1DFF818261180DFF81016E3
:105260004988DFF8C425A02303FB00F31A4492F811
:105270009D2051FA82F1DFF8F8255180DFF8F01512
:105280004988DFF8A425A02303FB00F31A4492F811
:105290009E2051FA82F1DFF8D8255180DFF8D01531
:1052A0004988DFF88425A02303FB00F31A4492F811
:1052B0009F2051FA82F1DFF8B8255180401CA0E709
:1052C000704770B4002000213A24200000B20B285F
:1052D000C0F2AF80002423004F24DFF83C5585F84E
:1052E0003B40DFF8344500B204446478210009B241
:1052F00001292CDBDFF83045A02510FB05F52C44F7
:1053000009B20C4414F8014CDFF81C55A02610FB20
:1053100006F6354409B26D5CAC4216D0DFF808459C
:10532000A02510FB05F52C4409B20C4414F8014CDF
:10533000012C0AD1DFF8684600B204EB40041BB22E
:105340000D006D1EE5545B1C01E0491ECFE71BB24A
:10535000002B10D1DFF8D044A02510FB05F5645DCB
:10536000002C08D1DFF8384600B204EB40041BB231
:105370000025E5545B1CDFF8A04400B204446478C7
:10538000210009B29F2929DADFF89C44A02510FBEF
:1053900005F52C4409B20C446478DFF88C54A0263F
:1053A00010FB06F6354409B26D5CAC4214D0DFF850
:1053B0007844A02510FB05F52C4409B20C44647810
:1053C000012C09D1DFF8D84500B204EB40041BB230
:1053D0004D1CE5545B1C01E0491CD2E71BB2012BBC
:1053E00012D1DFF84444A02510FB05F52C4494F8B5
:1053F0009F40002C08D1DFF8A84500B204EB400420
:105400001BB29F25E5545B1CDFF8944500B214F8ED
:105410001040DFF88C5500B205EB40056D782C1973
:10542000022594FBF5F4DFF8F05300B22C54401E33
:105430004CE73A24200000B20B2834DBDFF8D843D5
:1054400000B2245C1F2C2CDA441E210009B20B2967
:1054500026DBDFF8C44300B2245C00B209B2451A6F
:1054600041F6DC6600B296FBF0F67543642695FBC8
:10547000F6F5641B220012B2012A00DA0022DFF8DE
:10548000984309B26254DFF8184509B204F81120B4
:10549000DFF80C4509B204EB41046270491ED5E700
:1054A00001E0401EC7E73A24200000B20B2831DBA0
:1054B000D94C00B2245C822C2ADB441E210009B2A4
:1054C0000B2924DBD44C00B2245C00B209B2451A8B
:1054D00041F6DC6600B296FBF0F67543642695FB58
:1054E000F6F52C19220012B29F2A00DB9F22CA4C2B
:1054F00009B26254DFF8A84409B204F81120DFF8B9
:10550000A04409B204EB41046270491ED7E701E0F0
:10551000401ECAE770BC704710B50021002000F0A3
:10552000EFF8DFF8141508700121002000F0E8F80A
:10553000DFF8041548700021142000F0E1F8DFF8CE
:10554000F81481F828000121142000F0D9F8DFF8C0
:10555000E81481F82900DFF8DC0490F90000032842
:105560005CD1DFF8D4040078DFF8D0140870DFF8DD
:10557000C8044078DFF8C41488701920040024B2ED
:105580004F2C20DA00212000C0B200F0B9F8DFF87B
:10559000A81424B201F81400DFF8A0040078DFF8A2
:1055A000981424B211F8141088420AD3DFF8880442
:1055B00024B210F81400DFF884140870DFF87C04BB
:1055C0004470641CDBE71920040024B24F2C25DA58
:1055D00001212000C0B200F093F8DFF85C1424B27F
:1055E00001EB44014870DFF854048078DFF8481478
:1055F00024B201EB4401497888420DD3DFF8380426
:1056000024B200EB44004078DFF830148870D4F105
:10561000A000DFF82814C870641CD6E710BD70B570
:105620006620FCF761F8002849D03A20040024B233
:10563000002C11D49F2005002DB2002D0AD4DFF8D4
:105640000004A02114FB01F108442DB201214155B1
:105650006D1EF1E7641EEAE73A20040024B2002C34
:105660002DD46D4824B2005D0600DFF8D403A021DC
:1056700014FB01F1084436B200218155DFF8200304
:1056800024B210F814000600DFF8B403A02114FBC4
:1056900001F1084436B200218155DFF8040324B239
:1056A00000EB440040780600DFF89403A02114FBCF
:1056B00001F1084436B200218155641ECEE770BD69
:1056C0003A221000C0B20B280FDB534AC0B2125C62
:1056D0001100DFF86C23C0B2A02303FB00F31A44CF
:1056E000C9B201235354401EECE77047FE3FFF1F31
:1056F0000040FF1F3440FF1F040EFF1F000040400A
:1057000030B402000020C9B200293BD1392318006F
:10571000C0B2022836DBDFF82833C0B2A02404FB75
:1057200000F42344D2B29B5CDFF81443C0B2A0253E
:1057300005FB00F52C44D2B21444647854FA83F388
:10574000DFF8FC42C0B2A02505FB00F52C44D2B224
:10575000144414F8A04C53FA84F3DFF8E442C0B2C6
:10576000A02505FB00F52C44D2B2144414F89F4C3C
:1057700053FA84F3042B03D1D0F13B00C0B247E0CD
:10578000401EC5E7C9B2012942D139231800C0B271
:1057900002283DDBDFF8A832C0B2A02404FB00F4ED
:1057A0002344D2B25442234493F89F30DFF890420E
:1057B000C0B2A02505FB00F52C44D2B255422C44C2
:1057C00094F89E4054FA83F3DFF87442C0B2A025E7
:1057D00005FB00F52C44D2B255422C4414F8014C80
:1057E00053FA84F3DFF85842C0B2A02505FB00F558
:1057F0002C44D2B255422C4414F8024C53FA84F390
:10580000042B03D1D0F13B00C0B201E0401EBEE743
:1058100030BC70473240FF1F943DFF1F0000A04185
:10582000080EFF1F2E40FF1F140EFF1F6F40FF1FAB
:10583000E63FFF1F0022100000B20B2811DA002201
:10584000110009B2A0290ADADFF8F421A02310FB25
:1058500003F31A4409B201235354491CF1E7401CD5
:10586000EAE770477040FF1F4840FF1F0C3DFF1FD5
:10587000743EFF1F5B40FF1F5940FF1F5A40FF1F30
:105880000240FF1FD83EFF1FF0B40025DFF8B461CF
:1058900035700025DFF8AC6175700025DFF8A86170
:1058A0003570DFF8A8512D780A2D6CDBDFF8A05198
:1058B0002D780A2D67DB3B252800C0B20B2855DB6D
:1058C000D0F13C0529000A252A00D2B2C9B201FB59
:1058D00002F50A2695FBF6F50B352C00D2B2C9B2BB
:1058E00001FB02F50A2695FBF6F5D5F193052B0091
:1058F000DFF850512D78DFF84861C0B2A02707FBD0
:1059000000F73E44DBB21E447678DFF83471C0B253
:105910005FF0A00C0CFB00FC6744DBB21F44BF78B7
:10592000BE197519DFF81C613570DFF818516D78F4
:10593000DFF80C61C0B2A02707FB00F73E44E4B2D9
:10594000264416F8016CDFF8F870C0B25FF0A00CC6
:105950000CFB00FC6744E4B2274417F8027CBE1934
:105960007519DFF8E0607570401EA6E7DFF8D450C7
:105970002D78DFF8D06076787519052D03DA0125CA
:10598000DFF8C4603570F0BC704700004940FF1F6D
:105990005740FF1F0640FF1F4A40FF1F4B40FF1F9D
:1059A0001C3DFF1FF8B42B4B1B88ADF800300500E1
:1059B0000C001600721E002E3AD026783300641CAC
:1059C0006E46DBB2DF11F65D2E706D1C6E46C3F3C2
:1059D0008017FFB2F65D2E706D1C6E46C3F3401744
:1059E000FFB2F65D2E706D1C6E46C3F30017FFB25A
:1059F000F65D2E706D1C6E46C3F3C007FFB2F65DF8
:105A00002E706D1C6E46C3F38007FFB2F65D2E70DC
:105A10006D1C6E46C3F34007FFB2F65D2E706D1C21
:105A20006E46DBB213F00107F65D2E706D1CC0E709
:105A3000F1BC7047700CFF1FD03DFF1F703EFF1F71
:105A4000140EFF1F0440FF1F5640FF1F5A40FF1F48
:105A50005940FF1F0A230000F0B40C000300160099
:105A6000721E002E41D0002635002678FF2716FB37
:105A700007F616F080063543641C2678FF2716FBD0
:105A800007F616F040063543641C2678FF2716FB00
:105A900007F616F020063543641C2678FF2716FB10
:105AA00007F616F010063543641C2678FF2716FB10
:105AB00007F616F008063543641C2678FF2716FB08
:105AC00007F616F004063543641C2678FF2716FBFC
:105AD00007F616F002063543641C267816F0010618
:105AE0003543641C1D705B1CB9E7F0BC70470000B7
:105AF000002840F10980F446404200F005F850F0DB
:105B000000406047002800BF0AD0B0FA80F188400A
:105B1000D1F19D01C905020672F1004241EB10204E
:105B20007047000010B5FF2313EAD0541DBF13EADD
:105B3000D1529C429A4239E0A41ADA0780EA010362
:105B4000134042EA012142EA0020421A3CBF641E8F
:105B500001EB4202090AB2FBF1FE01FB1E22120216
:105B6000B2FBF1F001FB10226EF30F201202B2FB28
:105B7000F1FE4EEA00207F3406DDFE2C24DA53EAE3
:105B8000500050EBC45010BDD4F1020401FB1E22A2
:105B900040F08071192C1DDC21FA04F0C4F12004BE
:105BA000A140114371F10042584110BD9C421ABFFF
:105BB00003EAD1529A420FE080EA010E0EF0004350
:105BC000400004D0490016D143F0FF4010BD490009
:105BD00008BFD343180010BD9C4205D1D21AF7D09C
:105BE00001F00041484010BD4A0212BF084648403B
:105BF00000F0004010BD4AB90902B1FA81F29140AB
:105C000044B1A418C00140F000409EE7C90141F032
:105C1000004152420002B0FA80F4A040141B94E705
:105C200005203A4908700520394908700120394992
:105C300008707047052211FB02F2344B1A700522DE
:105C400011FB02F2324B1A70C0B24200314B1A7093
:105C5000704780B52F480078002825D02C48007860
:105C6000002817D02B480078022190FBF1F201FBAD
:105C70001200012804D100213720FBF7E0FC03E0EB
:105C800001213720FBF7DBFC21480078401E20492A
:105C9000087013E01D4800781D4908701D48007801
:105CA000401E1C49087009E001213720FBF7C7FCA2
:105CB00000201649087000201649087001BD1648DA
:105CC0000078401C1449087013480078C9280EDB7E
:105CD000124800781249087000201049087000200E
:105CE0000D4908700F480078401C0E4908700D4897
:105CF00000783D2802D100200A4908707047074803
:105D00000078401C05490870704700004E40FF1F96
:105D10005040FF1F4F40FF1F8140FF1F5F40FF1F8C
:105D20005E40FF1F5D40FF1F80B500214020FBF754
:105D300086FC00216F20FBF782FC00219A20FBF7F4
:105D40007EFC00211120FBF77AFC01BD80B501210A
:105D50004020FBF774FC01216F20FBF770FC012150
:105D60009A20FBF76CFC01211120FBF768FC01BDB8
:105D7000002200F001B8000000B500BF13009646F5
:105D80009446103928BFA0E80C50FAD85FEA417C4D
:105D900028BF0CC048BF40F8042BC90728BF20F813
:105DA000022B48BF00F8012B00BD00007CB5002489
:105DB000DFF8880B40785038FFF79AFE0090DFF844
:105DC0007C0B00781E38FFF793FE90F000400190A6
:105DD000DFF8000D0088DFF8681B0880DFF8640B2F
:105DE00090F9010001280DD140F2E240DFF8E41CF7
:105DF0000880DFF8E00CB0F900200021012001F05C
:105E00002AF84EE2DFF83C0B90F9010002280DD190
:105E10004FF46B70DFF8BC1C0880DFF8B80CB0F9E9
:105E200000200021012001F016F83AE2DFF8180BFB
:105E30000078012825D1DFF8140B007800280DD157
:105E400040F2E240DFF88C1C0880DFF8880CB0F9E3
:105E500000200021012000F0FEFF22E2DFF8EC0A22
:105E6000007801280DD14FF46B70DFF8681C0880B2
:105E7000DFF8600CB0F900200021012000F0EBFFFA
:105E80000FE2DFF8CC0A0078012838D1DFF8C00B28
